:03000000020100FA
:04010000318A80FEC2
:10013000E5648568F0A4F580E5658567F0A4F4249E
:10014000012580F581E5608581F0A4F58222E563D3
:100150008568F0A4F580E5658566F0A4F4240125A2
:1001600080F581E5618581F0A4F58322E5638567EB
:10017000F0A4F580E5648566F0A4F424012580F5FB
:1001800081E5628581F0A4F584223130314E316CF5
:100190008582F0E58425F0F5F0E583F4240125F06F
:1001A000F585B4001D7570FF7571FF7572FF75736D
:1001B000FF7574FF7575FF7576FF7577FF7578FFAE
:1001C000418C786479687A657B67517E8C7078653C
:1001D00079667A637B68517E8C73786379677A6419
:1001E0007B66517E8C76786279677A617B68517E16
:1001F0008C71786079687A627B66517E8C747861E4
:1002000079667A607B67517E8C77786179657A62EE
:100210007B64517E8C72786379627A657B60517EF3
:100220008C75786079647A617B63517E8C78AD706F
:10023000AE8551788D70AD71AE8551788D71AD728E
:10024000AE8551788D72AD73AE8551788D73AD7476
:0E025000AE8551788D74AD75AE8551788D7583
:10025E00AD76AE8551788D76AD77AE8551788D774A
:10026E00AD78AE8551788D78418CED8EF084FD227F
:0F027E00E889F0A4FCEA8BF0A4FDEC9DFC2222A1
:00000001FF
