:03000000020100FA
:04010000313080FE1C
:100130007870797331E385F060F5617871797431A5
:10014000E385F062F5637872797531E385F064F5E3
:1001500065E5612563F568E5603562F5674005751D
:1001600066008003756601E5682565F552E567352B
:1001700064F55140058566508006E5662401F5501A
:10018000757601757700757800757900757A8075D8
:100190007B00E550C3957640186002802FE551C37F
:1001A0009577400D60028024E552C3957860025037
:1001B0001BE550C395794024501BE551C3957A4007
:1001C0001B5012E552C3957B4012800975B000D2D6
:1001D000B0D2B1801375B000D2B1800C75B000D22E
:0901E000B08005E687F0A422229C
:00000001FF
