:03000000020100FA
:04010000313080FE1C
:10013000AF007860E6C3947F500486608007F424A3
:1001400081F886600F7861E6C3947F5004866180F1
:1001500007F42401F886610F7862E6C3947F5004A7
:1001600086628007F42401F886620F7863E6C39400
:100170007F500486638007F42401F886630F786457
:10018000E6C3947F500486648007F42401F88664F3
:100190000F7865E6C3947F500486658007F42401D8
:1001A000F886650FE5608563F0A4F550E56185622A
:1001B000F0A4F551E550C39551F552A863A964AA7E
:1001C00061AB6531E58C72A860A965AA62AB643148
:1001D000E58C73E5728552F084F570E5738552F015
:1001E00084F5718014EA8BF0A4FCE889F0A49C40AB
:0A01F00003FC80042402F4FC222228
:00000001FF
