:03000000020100FA
:10010000A864A968AA65AB6731D08CF0E560A4FD4E
:10011000A863A968AA65AB6631D08CF0E561A4FE3E
:10012000A863A967AA64AB6631D08CF0E562A4FF2E
:10013000ED9E2FF8F569B8001D7570FF7571FF759C
:1001400072FF7573FF7574FF7575FF7576FF7577B0
:10015000FF7578FF80FEA864A968AA65AB6731D0F7
:100160008C70A865A966AA63AB6831D08C73A8634C
:10017000A967AA64AB6631D08C76A862A967AA6128
:10018000AB6831D08C71A860A968AA62AB6631D027
:100190008C74A861A966AA60AB6731D08C77A8611E
:1001A000A965AA62AB6431D08C72A862A963AA6007
:1001B000AB6531D08C75A860A964AA61AB6331D0FE
:1001C0008C787870E68569F084F608B879F68084D2
:0C01D000EA8BF0A4FCE889F0A49CFC225F
:00000001FF
